:10000000020097BB010CE58229F582E5833AF5836E
:10001000E0225006E92582F8E622BBFE06E92582A9
:10002000F8E222E58229F582E5833AF583E493221A
:10003000EF8DF0A4A8F0CF8CF0A428CE8DF0A42EE4
:10004000FE22BC000BBE0029EF8DF084FFADF02234
:10005000E4CCF875F008EF2FFFEE33FEEC33FCEE46
:100060009DEC984005FCEE9DFE0FD5F0E9E4CEFD39
:1000700022EDF8F5F0EE8420D21CFEADF075F0080C
:10008000EF2FFFED33FD4007985006D5F0F222C365
:1000900098FD0FD5F0EA22787FE4F6D8FD7581143B
:1000A0000200DE020190E493A3F8E493A34003F678
:1000B0008001F208DFF48029E493A3F85407240CAC
:1000C000C8C333C4540F4420C8834004F45680018D
:1000D00046F6DFE4800B0102040810204080900205
:1000E00081E47E019360BCA3FF543F30E509541FB7
:1000F000FEE493A360010ECF54C025E060A840B891
:10010000E493A3FAE493A3F8E493A3C8C582C8CA0E
:10011000C583CAF0A3C8C582C8CAC583CADFE9DEE1
:10012000E780BEEF14B40800505490013875F00316
:10013000A4C58325F0C58373020178020170020112
:100140006802016002015C02015802015402015080
:10015000D2A4800ED2A48012D2A48016D2A4801A77
:10016000C2A4D2A3D2A28016C2A4D2A3C2A2800EDD
:10017000C2A4C2A3D2A28006C2A4C2A3C2A274080F
:100180002DF8E6F5807F017E001201FDE4F5802266
:100190001202517BFF7A0279747D01E4FF1201DAC9
:1001A0007D017F011201237D027F021201237D0365
:1001B0007F031201237D047F041201237D057F0547
:1001C0001201237D067F061201237D077F0712019E
:1001D000237D087F0812012380C68B128A1389149D
:1001E00012023BE4FDAB12AA13A9148D82758300A1
:1001F000120003FF60061202310D80E922E4FDFCCB
:10020000C3ED9FEC9E5015E4FBFA0BBB00010AEB1B
:1002100064784A70F50DBD00010C80E422CFCDCF8B
:10022000CECCCE1200427C007D0A120042ED24307A
:10023000FFD2A6120265C2A702026BAE07BE01047E
:10024000ED148006BE0209ED243F4480FF12028EA9
:10025000227F3812028E7F0C12028E7F0612028ECF
:100260007F0102028EC2A58F80D2A77F027EEFDEC1
:10027000FEDFFC2268656C6C6F20776F726C642106
:10028000000A083F065B4F666D7D077F6F00C2A6C0
:08029000120265C2A702026B15
:00000001FF
