:100000000200BACFCDCFCECCCE1200657C007D0AE7
:10001000120065ED2430FFD2A6120202C2A702022E
:0100200008D7
:10002300020228BB010CE58229F582E5833AF583B8
:10003300E0225006E92582F8E622BBFE06E9258286
:10004300F8E222E58229F582E5833AF583E49322F7
:10005300EF8DF0A4A8F0CF8CF0A428CE8DF0A42EC1
:10006300FE22BC000BBE0029EF8DF084FFADF02211
:10007300E4CCF875F008EF2FFFEE33FEEC33FCEE23
:100083009DEC984005FCEE9DFE0FD5F0E9E4CEFD16
:1000930022EDF8F5F0EE8420D21CFEADF075F008E9
:1000A300EF2FFFED33FD4007985006D5F0F222C342
:1000B30098FD0FD5F0EA22787FE4F6D8FD75811B11
:1000C3000201010201D4E493A3F8E493A34003F6ED
:1000D3008001F208DFF48029E493A3F85407240C89
:1000E300C8C333C4540F4420C8834004F45680016A
:1000F30046F6DFE4800B01020408102040809002E2
:1001030011E47E019360BCA3FF543F30E509541F03
:10011300FEE493A360010ECF54C025E060A840B86D
:10012300E493A3FAE493A3F8E493A3C8C582C8CAEB
:10013300C583CAF0A3C8C582C8CAC583CADFE9DEBE
:10014300E780BEEF24FFFDEE34FFFC7F0A8E178F9E
:10015300188C198D1A7F017E00E4FBEBC3951AE519
:10016300196480F8748098500AAC17AD18120053C4
:100173000B80E8228A148B1512019BAA16EAFF7ED4
:1001830000D3940074809480400D120146AC14ADEA
:10019300151200031A80E622AE07EEFB7A00640113
:1001A3007004ED148009EB64024A7009ED243F44A6
:1001B30080FF12021E2253877F75985053890F4385
:1001C3008920758BFD758DFDC2ABD28ED2AFD2ACBB
:1001D300221201EE1201B9E4F5A0E51BFB7A0075CA
:1001E30016037D017F0112017780EF7F3812021E13
:1001F3007F0C12021E7F0612021E7F0102021EC224
:10020300A58F80D2A77F027EEFDEFEDFFC220A08E5
:100213003F065B4F666D7D077F6F00C2A612020229
:0E022300C2A702020830980585991BC29832C6
:00000001FF
