:100000000200B0BB010689828A83E0225002E72207
:10001000BBFE02E32289828A83E49322BB010CE5C2
:100020008229F582E5833AF583E0225006E92582AC
:10003000F8E622BBFE06E92582F8E222E58229F5F0
:1000400082E5833AF583E49322EF8DF0A4A8F0CF04
:100050008CF0A428CE8DF0A42EFE22BC000BBE0096
:1000600029EF8DF084FFADF022E4CCF875F008EFB5
:100070002FFFEE33FEEC33FCEE9DEC984005FCEEDA
:100080009DFE0FD5F0E9E4CEFD22EDF8F5F0EE840B
:1000900020D21CFEADF075F008EF2FFFED33FD40D0
:1000A00007985006D5F0F222C398FD0FD5F0EA224A
:1000B000787FE4F6D8FD7581140200F70201AFE401
:1000C00093A3F8E493A34003F68001F208DFF480E1
:1000D00029E493A3F85407240CC8C333C4540F4431
:1000E00020C8834004F456800146F6DFE4800B010B
:1000F000020408102040809001D0E47E019360BC8F
:10010000A3FF543F30E509541FFEE493A360010EA2
:10011000CF54C025E060A840B8E493A3FAE493A3C9
:10012000F8E493A3C8C582C8CAC583CAF0A3C8C5EA
:1001300082C8CAC583CADFE9DEE780BE8B128A1394
:10014000891412017DE4FDAB12AA13A9148D8275E6
:10015000830012001CFF60061201730D80E922CF9C
:10016000CDCFCECCCE12005B7C007D0A12005BEDC1
:100170002430FFD2A61201C1C2A70201C7AE07EE0A
:10018000FB7A0064017004ED148009EB64024A708C
:1001900009ED243F4480FF1201DD227F381201DD8A
:1001A0007F0C1201DD7F061201DD7F010201DD12ED
:1001B000019B7BFF7A0179E77D017F0112013C8081
:1001C000FEC2A58F80D2A77F027EEFDEFEDFFC227B
:1001D0000A083F065B4F666D7D077F6F00C2A6125F
:0E01E00001C1C2A70201C7636C6F636B3A00D6
:00000001FF
