:030000000200A259
:10000B0002012EBB010CE58229F582E5833AF583CB
:10001B00E0225006E92582F8E622BBFE06E925829E
:10002B00F8E222E58229F582E5833AF583E493220F
:10003B00EF8DF0A4A8F0CF8CF0A428CE8DF0A42ED9
:10004B00FE22BC000BBE0029EF8DF084FFADF02229
:10005B00E4CCF875F008EF2FFFEE33FEEC33FCEE3B
:10006B009DEC984005FCEE9DFE0FD5F0E9E4CEFD2E
:10007B0022EDF8F5F0EE8420D21CFEADF075F00801
:10008B00EF2FFFED33FD4007985006D5F0F222C35A
:10009B0098FD0FD5F0EA22787FE4F6D8FD75811F25
:1000AB000200E9020181E493A3F8E493A34003F671
:1000BB008001F208DFF48029E493A3F85407240CA1
:1000CB00C8C333C4540F4420C8834004F456800182
:1000DB0046F6DFE4800B01020408102040809002FA
:1000EB009BE47E019360BCA3FF543F30E509541F92
:1000FB00FEE493A360010ECF54C025E060A840B886
:10010B00E493A3FAE493A3F8E493A3C8C582C8CA03
:10011B00C583CAF0A3C8C582C8CAC583CADFE9DED6
:10012B00E780BEC0E0C0D0758A18758CFC051CE555
:10013B001C7002051B64E87004E51B64037032F548
:10014B001BF51C051DC3E51D943C74809480402158
:10015B00751D00051FE51F943C748094804012753B
:10016B001F00051EE51E9418748094804003751EB5
:10017B0000D0D0D0E0321202841202B17BFF7A029F
:10018B0079DE7D017F011202257BFF7A0279E57D05
:10019B00017F02120225E51EFB7A007516027D0116
:1001AB007F02120201E51FFB7A007516027D047FA8
:1001BB0002120201E51DFB7A007516027D077F0214
:1001CB0012020180D1EF24FFFDEE34FFFC7F0A8E7B
:1001DB00178F188C198D1A7F017E00E4FBEBC395EA
:1001EB001AE5196480F8748098500AAC17AD181290
:1001FB00003B0B80E8228A148B15120266AA16EAC2
:10020B00FF7E00D3940074809480400D1201D0AC1B
:10021B0014AD151202481A80E6228B128A13891428
:10022B00120266E4FDAB12AA13A9148D827583002A
:10023B0012000EFF600612025C0D80E922CFCDCFBB
:10024B00CECCCE12004D7C007D0A12004DED243039
:10025B00FFD2A61202C5C2A70202CBAE07EEFB7AF3
:10026B000064017004ED148009EB64024A7009ED1F
:10027B00243F4480FF1202D4225389F0438901C2E8
:10028B008DD28C758CFC758A18D2A9D2AFC2B922CB
:10029B000A083F065B4F666D7D077F6F011D3701B7
:1002AB001F3B011E17007F381202D47F0C1202D4A1
:1002BB007F061202D47F010202D4C2A58F80D2A77F
:1002CB007F027EEFDEFEDFFC22C2A61202C5C2A7B2
:1002DB000202CB434C4F434B3A0020203A20203AAA
:0102EB000012
:00000001FF
