:100000000200B0BB010689828A83E0225002E72207
:10001000BBFE02E32289828A83E49322BB010CE5C2
:100020008229F582E5833AF583E0225006E92582AC
:10003000F8E622BBFE06E92582F8E222E58229F5F0
:1000400082E5833AF583E49322EF8DF0A4A8F0CF04
:100050008CF0A428CE8DF0A42EFE22BC000BBE0096
:1000600029EF8DF084FFADF022E4CCF875F008EFB5
:100070002FFFEE33FEEC33FCEE9DEC984005FCEEDA
:100080009DFE0FD5F0E9E4CEFD22EDF8F5F0EE840B
:1000900020D21CFEADF075F008EF2FFFED33FD40D0
:1000A00007985006D5F0F222C398FD0FD5F0EA224A
:1000B000787FE4F6D8FD7581140200F702013CE474
:1000C00093A3F8E493A34003F68001F208DFF480E1
:1000D00029E493A3F85407240CC8C333C4540F4431
:1000E00020C8834004F456800146F6DFE4800B010B
:1000F000020408102040809001F5E47E019360BC6A
:10010000A3FF543F30E509541FFEE493A360010EA2
:10011000CF54C025E060A840B8E493A3FAE493A3C9
:10012000F8E493A3C8C582C8CAC583CAF0A3C8C5EA
:1001300082C8CAC583CADFE9DEE780BEE4F51312D0
:100140000202E4F512C3E512940874809480501200
:10015000E512251390020A93FDAF121201B10512A8
:1001600080E30514E51475F01E84E5F070D40513E2
:10017000E51375F0188485F01380C7AD07E4FBEB39
:10018000C394087480948050237E007480A8030870
:100190008006CEA2E713CE13D8F8FFEDF582EF5517
:1001A0008224FF92B4D2B6C2B60B80D3D2B5C2B508
:1001B00022AE05AC07AF0612017BAF04A80774801E
:1001C000088002C313D8FCF4F5807F017E00120181
:1001D000D57580FF22E4FDFCC3ED9FEC9E5015E435
:1001E000FBFA0BBB00010AEB64784A70F50DBD0009
:1001F000010C80E4220A083F065B4F666D7D077F95
:100200006F00E4F580C2B6C2B52200FF89FF89897C
:10021000FF001E2242FF4242221E00FF89FF898901
:0A022000FF001E2242FF4242221E90
:00000001FF
