:1000000002007BE4F50875A0FE20B0257F147E0079
:1000100012005B30B0FD7F147E0012005B0508E526
:10002000085407FFF87401088002C333D8FCF4F5C4
:10003000A020B1D57F147E0012005B30B1FD7F148B
:100040007E0012005B1508E5085407FFF8740108EC
:100050008002C333D8FCF4F5A080AEE4FDFCC3ED10
:100060009FEC9E5015E4FBFA0BBB00010AEB647891
:100070004A70F50DBD00010C80E422787FE4F6D8CB
:07008000FD75810802000379
:00000001FF
