:10000000020097BB010CE58229F582E5833AF5836E
:10001000E0225006E92582F8E622BBFE06E92582A9
:10002000F8E222E58229F582E5833AF583E493221A
:10003000EF8DF0A4A8F0CF8CF0A428CE8DF0A42EE4
:10004000FE22BC000BBE0029EF8DF084FFADF02234
:10005000E4CCF875F008EF2FFFEE33FEEC33FCEE46
:100060009DEC984005FCEE9DFE0FD5F0E9E4CEFD39
:1000700022EDF8F5F0EE8420D21CFEADF075F0080C
:10008000EF2FFFED33FD4007985006D5F0F222C365
:1000900098FD0FD5F0EA22787FE4F6D8FD7581113E
:1000A0000200DE020123E493A3F8E493A34003F6E5
:1000B0008001F208DFF48029E493A3F85407240CAC
:1000C000C8C333C4540F4420C8834004F45680018D
:1000D00046F6DFE4800B0102040810204080900106
:1000E000E5E47E019360BCA3FF543F30E509541F53
:1000F000FEE493A360010ECF54C025E060A840B891
:10010000E493A3FAE493A3F8E493A3C8C582C8CA0E
:10011000C583CAF0A3C8C582C8CAC583CADFE9DEE1
:10012000E780BEE4F580C2B6C2B57DFF7F0712014D
:10013000A17D3CE4FF1201A17D427F011201A17D5E
:10014000A97F021201A17D857F031201A17D857F18
:10015000041201A17DA97F051201A17D427F061233
:1001600001A17D3C7F071201A180C6AD07E4FBEB36
:10017000C394087480948050237E007480A8030880
:100180008006CEA2E713CE13D8F8FFEDF582EF5527
:100190008224FF92B4D2B6C2B60B80D3D2B5C2B518
:1001A00022AE05AC07AF0612016BAF04A80774803E
:1001B000088002C313D8FCF4F5807F017E00120191
:1001C000C57580FF22E4FDFCC3ED9FEC9E5015E455
:1001D000FBFA0BBB00010AEB64784A70F50DBD0019
:1001E000010C80E4220A083F065B4F666D7D077FA5
:0201F0006F009E
:00000001FF
