:100000000202ADE4F50F7590FFC2932097137F14A1
:10001000FE12035C3097FD7F147E0012035C750FA7
:10002000012096147F147E0012035C3096FD7F142D
:100030007E0012035C750F052095147F147E00125C
:10004000035C3095FD7F147E0012035C750F092060
:1000500094147F147E0012035C3094FD7F147E00A4
:1000600012035C750F0D7590FFC2922097147F14D8
:100070007E0012035C3097FD7F147E0012035C75D6
:100080000F022096147F147E0012035C3096FD7FD1
:10009000147E0012035C750F062095147F147E00F9
:1000A00012035C3095FD7F147E0012035C750F0A0D
:1000B0002094147F147E0012035C3094FD7F147E24
:1000C0000012035C750F0E7590FFC2912097147F8C
:1000D000147E0012035C3097FD7F147E0012035CD7
:1000E000750F032096147F147E0012035C3096FD7A
:1000F0007F147E0012035C750F072095147F147E19
:100100000012035C3095FD7F147E0012035C750FB6
:100110000B2094147F147E0012035C3094FD7F1436
:100120007E0012035C750F0F7590FFC2902097142C
:100130007F147E0012035C3097FD7F147E00120353
:100140005C750F042096147F147E0012035C3096B9
:10015000FD7F147E0012035C750F082095147F1438
:100160007E0012035C3095FD7F147E0012035C75E7
:100170000F0C2094147F147E0012035C3094FD7FDA
:10018000147E0012035C750F10AF0F22BB010CE54B
:100190008229F582E5833AF583E0225006E925823B
:1001A000F8E622BBFE06E92582F8E222E58229F57F
:1001B00082E5833AF583E49322EF8DF0A4A8F0CF93
:1001C0008CF0A428CE8DF0A42EFE22BC000BBE0025
:1001D00029EF8DF084FFADF022E4CCF875F008EF44
:1001E0002FFFEE33FEEC33FCEE9DEC984005FCEE69
:1001F0009DFE0FD5F0E9E4CEFD22EDF8F5F0EE849A
:1002000020D21CFEADF075F008EF2FFFED33FD405E
:1002100007985006D5F0F222C398FD0FD5F0EA22D8
:100220001203CA7BFF7A03799B7D017F0112033998
:100230001200038F0EE50E60F7D3940A50350508BF
:10024000E5089404502DAE0CAF0D7C007D0A120120
:10025000B98E0C8F0DE50E75F00A84E5F0250DF5CD
:100260000DE4350CF50CC374059508FD7B2A7F025F
:10027000120407E50EB40BB8E50DB4560DE50CB449
:1002800004087BFF7A0379A780067BFF7A0379ABAA
:100290007D0D7F01120339E4F50CF50DF5087BFFA8
:1002A0007A0379AF7D017F021203398083787FE47E
:1002B000F6D8FD7581110202F4020220E493A3F83E
:1002C000E493A34003F68001F208DFF48029E4936D
:1002D000A3F85407240CC8C333C4540F4420C88364
:1002E0004004F456800146F6DFE4800B0102040866
:1002F000102040809003DEE47E019360BCA3FF5495
:100300003F30E509541FFEE493A360010ECF54C0B3
:1003100025E060A840B8E493A3FAE493A3F8E4933B
:10032000A3C8C582C8CAC583CAF0A3C8C582C8CA43
:10033000C583CADFE9DEE780BE8B0F8A1089111200
:1003400003B4E4FDAB0FAA10A9118D8275830012CE
:10035000018CFF60061203900D80E922E4FDFCC3CE
:10036000ED9FEC9E5015E4FBFA0BBB00010AEB6419
:10037000784A70F50DBD00010C80E422CFCDCFCEC0
:10038000CCCE1201CB7C007D0A1201CBED2430FFD4
:10039000D2A61203EEC2A70203F4005061737320C9
:1003A000576F7264203A004F4B2000455252002094
:1003B00020202000AE07BE0104ED148006BE020915
:1003C000ED243F4480FF1203FD227F381203FD7F9E
:1003D0000C1203FD7F061203FD7F010203FD010ED7
:1003E00000020C00000108000309FF039A00C2A5E7
:1003F0008F80D2A77F027EEFDEFEDFFC22C2A61234
:1004000003EEC2A70203F4AC031203B4AF04020369
:01041000905B
:00000001FF
