:100000000202B7E4F50F7590FFC2932097137F1497
:10001000FE1203663097FD7F147E00120366750F93
:10002000012096147F147E001203663096FD7F1423
:100030007E00120366750F052095147F147E001252
:1000400003663095FD7F147E00120366750F09204C
:1000500094147F147E001203663094FD7F147E009A
:10006000120366750F0D7590FFC2922097147F14CE
:100070007E001203663097FD7F147E0012036675C2
:100080000F022096147F147E001203663096FD7FC7
:10009000147E00120366750F062095147F147E00EF
:1000A0001203663095FD7F147E00120366750F0AF9
:1000B0002094147F147E001203663094FD7F147E1A
:1000C00000120366750F0E7590FFC2912097147F82
:1000D000147E001203663097FD7F147E00120366C3
:1000E000750F032096147F147E001203663096FD70
:1000F0007F147E00120366750F072095147F147E0F
:10010000001203663095FD7F147E00120366750FA2
:100110000B2094147F147E001203663094FD7F142C
:100120007E00120366750F0F7590FFC29020971422
:100130007F147E001203663097FD7F147E00120349
:1001400066750F042096147F147E001203663096A5
:10015000FD7F147E00120366750F082095147F142E
:100160007E001203663095FD7F147E0012036675D3
:100170000F0C2094147F147E001203663094FD7FD0
:10018000147E00120366750F10AF0F221203C27B9C
:10019000FF7A04790A7D017F011203431200038F65
:1001A0000EE50E60F7D3940A7480948050390508E8
:1001B000E508940474809480502DAE0CAF0D7C0043
:1001C0007D0A1202508E0C8F0DE50E75F00A84E543
:1001D000F0250DF50DE4350CF50CC374059508FDFF
:1001E0007B2A7F021203FFE50E640B70AFE50DB4AE
:1001F000560DE50CB404087BFF7A04791680067B63
:10020000FF7A04791A7D0D7F01120343E4F50CF5A2
:100210000DF5087BFF7A04791E7D017F02120343EE
:1002200002019CBB010CE58229F582E5833AF58346
:10023000E0225006E92582F8E622BBFE06E9258287
:10024000F8E222E58229F582E5833AF583E49322F8
:10025000EF8DF0A4A8F0CF8CF0A428CE8DF0A42EC2
:10026000FE22BC000BBE0029EF8DF084FFADF02212
:10027000E4CCF875F008EF2FFFEE33FEEC33FCEE24
:100280009DEC984005FCEE9DFE0FD5F0E9E4CEFD17
:1002900022EDF8F5F0EE8420D21CFEADF075F008EA
:1002A000EF2FFFED33FD4007985006D5F0F222C343
:1002B00098FD0FD5F0EA22787FE4F6D8FD7581111C
:1002C0000202FE02018CE493A3F8E493A34003F638
:1002D0008001F208DFF48029E493A3F85407240C8A
:1002E000C8C333C4540F4420C8834004F45680016B
:1002F00046F6DFE4800B01020408102040809003E2
:10030000D6E47E019360BCA3FF543F30E509541F3F
:10031000FEE493A360010ECF54C025E060A840B86E
:10032000E493A3FAE493A3F8E493A3C8C582C8CAEC
:10033000C583CAF0A3C8C582C8CAC583CADFE9DEBF
:10034000E780BE8B0F8A1089111203A4E4FDAB0F66
:10035000AA10A9118D82758300120223FF60061274
:10036000039A0D80E922E4FDFCC3ED9FEC9E50153D
:10037000E4FBFA0BBB00010AEB64784A70F50DBD93
:1003800000010C80E422CFCDCFCECCCE1202627C15
:10039000007D0A120262ED2430FFD2A61203E6C2EB
:1003A000A70203ECAE07EEFB7A0064017004ED14C3
:1003B0008009EB64024A7009ED243F4480FF120378
:1003C000F5227F381203F57F0C1203F57F06120326
:1003D000F57F010203F5010E00020C000001080088
:1003E0000309FF040900C2A58F80D2A77F027EEF18
:1003F000DEFEDFFC22C2A61203E6C2A70203ECACBB
:10040000031203A4AF0402039A00506173732057D0
:100410006F7264203A004F4B20004552520020205A
:0304200020200099
:00000001FF
