:030000000200A259
:10000B0002018FBB010CE58229F582E5833AF5836A
:10001B00E0225006E92582F8E622BBFE06E925829E
:10002B00F8E222E58229F582E5833AF583E493220F
:10003B00EF8DF0A4A8F0CF8CF0A428CE8DF0A42ED9
:10004B00FE22BC000BBE0029EF8DF084FFADF02229
:10005B00E4CCF875F008EF2FFFEE33FEEC33FCEE3B
:10006B009DEC984005FCEE9DFE0FD5F0E9E4CEFD2E
:10007B0022EDF8F5F0EE8420D21CFEADF075F00801
:10008B00EF2FFFED33FD4007985006D5F0F222C35A
:10009B0098FD0FD5F0EA22787FE4F6D8FD7581162E
:1000AB000200E902020FE493A3F8E493A34003F6E2
:1000BB008001F208DFF48029E493A3F85407240CA1
:1000CB00C8C333C4540F4420C8834004F456800182
:1000DB0046F6DFE4800B01020408102040809002FA
:1000EB0043E47E019360BCA3FF543F30E509541FEA
:1000FB00FEE493A360010ECF54C025E060A840B886
:10010B00E493A3FAE493A3F8E493A3C8C582C8CA03
:10011B00C583CAF0A3C8C582C8CAC583CADFE9DED6
:10012B00E780BEE4F51620B1137F14FE1201EF3009
:10013B00B1FD7F147E001201EF75160120B0147F04
:10014B00147E001201EF30B0FD7F147E001201EF20
:10015B0075160220B2147F147E001201EF30B2FD2F
:10016B007F147E001201EF75160320B3147F147EEB
:10017B00001201EF30B3FD7F147E001201EF7516F4
:10018B0004AF1622C0E0C0D075D000C000C004C0C0
:10019B0005C007758CFC758A180514E514700205EB
:1001AB0013C39464E5139400402D7513007514006C
:1001BB00E512FD7C00700DAFA07801EF08800123E4
:1001CB00D8FDF5A0ED64014C700DAFA07801EF08E0
:1001DB00800103D8FDF5A0D007D005D004D000D006
:1001EB00D0D0E032E4FDFCC3ED9FEC9E5015E4FB58
:1001FB00FA0BBB00010AEB64784A70F50DBD0001E8
:10020B000C80E42212022C75A0FE12012E8F15E534
:10021B001560F7640170F30512E5125401F51280B5
:10022B00E95389F0438901C28DD28C758CFC758A98
:10023B0018D2A9D2AFC2B9220A083F065B4F666D2E
:05024B007D077F6F003C
:00000001FF
