:100000000200D3CFCDCFCECCCE12007E7C007D0AB5
:1000100012007EED2430FFD2A6120265C2A70202B2
:010020006B74
:1000230002015FBB010689828A83E0225002E72234
:10003300BBFE02E32289828A83E49322BB010CE59F
:100043008229F582E5833AF583E0225006E9258289
:10005300F8E622BBFE06E92582F8E222E58229F5CD
:1000630082E5833AF583E49322EF8DF0A4A8F0CFE1
:100073008CF0A428CE8DF0A42EFE22BC000BBE0073
:1000830029EF8DF084FFADF022E4CCF875F008EF92
:100093002FFFEE33FEEC33FCEE9DEC984005FCEEB7
:1000A3009DFE0FD5F0E9E4CEFD22EDF8F5F0EE84E8
:1000B30020D21CFEADF075F008EF2FFFED33FD40AD
:1000C30007985006D5F0F222C398FD0FD5F0EA2227
:1000D300787FE4F6D8FD75813F02011A02027EE4BF
:1000E30093A3F8E493A34003F68001F208DFF480BE
:1000F30029E493A3F85407240CC8C333C4540F440E
:1001030020C8834004F456800146F6DFE4800B01E7
:10011300020408102040809001C3E47E019360BC78
:10012300A3FF543F30E509541FFEE493A360010E7F
:10013300CF54C025E060A840B8E493A3FAE493A3A6
:10014300F8E493A3C8C582C8CAC583CAF0A3C8C5C7
:1001530082C8CAC583CADFE9DEE780BEC0E0C0F05B
:10016300C083C082C0D075D000C000C001C002C02F
:1001730003C004C005C006C007C2AC0509E5097089
:1001830002050814241FF8A699E599B40D13750800
:10019300007509007B007A00791F7D017F01120140
:1001A300FDC298D2ACD007D006D005D004D003D07E
:1001B30002D001D000D0D0D082D083D0F0D0E032B2
:1001C3000A333F065B4F666D7D077F6F141F000088
:1001D300000000000000000000000000000000001C
:1001E3000000150ACED2CAC7D6D0B9FAC8CB2C2084
:1001F300CED2B0AED6D0B9FA00008B3D8A3E893F4D
:1002030012023BE4FDAB3DAA3EA93F8D82758300FC
:1002130012003FFF60061200170D80E92253877F0B
:1002230075985053890F438920758BFD758DFDC2D9
:10023300ABD28ED2AFD2AC22AE07BE0104ED148096
:1002430006BE0209ED243F4480FF120274227F3868
:100253001202747F0C1202747F061202747F010271
:100263000274C2A58F80D2A77F027EEFDEFEDFFC81
:1002730022C2A6120265C2A702026B120251120227
:030283002080FEDA
:00000001FF
