:10000000020220E4F5087590FFC2932097137F1435
:10001000FE12034C3097FD7F147E0012034C7508CE
:10002000012096147F147E0012034C3096FD7F143D
:100030007E0012034C7508052095147F147E001273
:10004000034C3095FD7F147E0012034C7508092087
:1000500094147F147E0012034C3094FD7F147E00B4
:1000600012034C75080D7590FFC2922097147F14EF
:100070007E0012034C3097FD7F147E0012034C75F6
:1000800008022096147F147E0012034C3096FD7FE8
:10009000147E0012034C7508062095147F147E0010
:1000A00012034C3095FD7F147E0012034C75080A34
:1000B0002094147F147E0012034C3094FD7F147E34
:1000C0000012034C75080E7590FFC2912097147FA3
:1000D000147E0012034C3097FD7F147E0012034CF7
:1000E0007508032096147F147E0012034C3096FD91
:1000F0007F147E0012034C7508072095147F147E30
:100100000012034C3095FD7F147E0012034C7508DD
:100110000B2094147F147E0012034C3094FD7F1446
:100120007E0012034C75080F7590FFC29020971443
:100130007F147E0012034C3097FD7F147E00120363
:100140004C7508042096147F147E0012034C3096E0
:10015000FD7F147E0012034C7508082095147F144F
:100160007E0012034C3095FD7F147E0012034C7507
:10017000080C2094147F147E0012034C3094FD7FF1
:10018000147E0012034C750810AF0822BB010CE569
:100190008229F582E5833AF583E0225006E925823B
:1001A000F8E622BBFE06E92582F8E222E58229F57F
:1001B00082E5833AF583E49322EF8DF0A4A8F0CF93
:1001C0008CF0A428CE8DF0A42EFE22BC000BBE0025
:1001D00029EF8DF084FFADF022E4CCF875F008EF44
:1001E0002FFFEE33FEEC33FCEE9DEC984005FCEE69
:1001F0009DFE0FD5F0E9E4CEFD22EDF8F5F0EE849A
:1002000020D21CFEADF075F008EF2FFFED33FD405E
:1002100007985006D5F0F222C398FD0FD5F0EA22D8
:10022000787FE4F6D8FD7581110202670202DDE4F1
:1002300093A3F8E493A34003F68001F208DFF4806F
:1002400029E493A3F85407240CC8C333C4540F44BF
:1002500020C8834004F456800146F6DFE4800B0199
:10026000020408102040809003D5E47E019360BC16
:10027000A3FF543F30E509541FFEE493A360010E31
:10028000CF54C025E060A840B8E493A3FAE493A358
:10029000F8E493A3C8C582C8CAC583CAF0A3C8C579
:1002A00082C8CAC583CADFE9DEE780BEEF24FFFD4E
:1002B000EE34FFFC7F0A8E0D8F0E8C0F8D107F01A8
:1002C0007E00E4FBEBC39510E50F6480F874809822
:1002D000500AAC0DAD0E1201B90B80E8221203A832
:1002E0007BFF7A0379D97D017F0112032912000374
:1002F0008F11E51160F7FB7A00750C027D017F021A
:1003000012030580E88A0A8B0B12038AAA0CEAFF03
:100310007E00D3940074809480400D1202ACAC0A2D
:10032000AD0B12036C1A80E6228B088A09890A1227
:10033000038AE4FDAB08AA09A90A8D82758300121D
:10034000018CFF60061203800D80E922E4FDFCC3EE
:10035000ED9FEC9E5015E4FBFA0BBB00010AEB6429
:10036000784A70F50DBD00010C80E422CFCDCFCED0
:10037000CCCE1201CB7C007D0A1201CBED2430FFE4
:10038000D2A61203BCC2A70203C2AE07EEFB7A00DC
:1003900064017004ED148009EB64024A7009ED24D5
:1003A0003F4480FF1203CB227F381203CB7F0C1215
:1003B00003CB7F061203CB7F010203CBC2A58F8044
:1003C000D2A77F027EEFDEFEDFFC22C2A61203BCB4
:1003D000C2A70203C2011100004D61747269782046
:0503E0004B65793A00B5
:00000001FF
